:020000040800F2
:1000000000000120316C0008296B00082B6B0008F0
:100010002D6B00082F6B0008316B000800000000FA
:10002000000000000000000000000000336B00082A
:10003000356B000800000000376B0008396B0008C2
:10004000796C0008796C0008796C0008796C0008FC
:10005000796C0008796C0008796C0008796C0008EC
:10006000796C0008796C0008796C0008796C0008DC
:10007000796C0008796C0008796C0008796C0008CC
:10008000796C0008796C0008796C0008796C0008BC
:10009000796C0008796C0008796C0008796C0008AC
:1000A000796C0008796C0008796C0008796C00089C
:1000B000796C0008796C0008796C0008796C00088C
:1000C000796C0008796C0008796C0008796C00087C
:1000D000796C0008796C0008796C0008796C00086C
:1000E000796C0008796C0008796C0008796C00085C
:1000F000796C0008796C0008796C0008796C00084C
:10010000796C0008796C0008796C0008796C00083B
:10011000796C0008796C0008796C0008796C00082B
:10012000796C0008796C0008796C0008796C00081B
:1001300000000000000000000000000000000000BF
:1001400000000000000000000000000000000000AF
:10015000000000000000000000000000000000009F
:10016000000000000000000000000000000000008F
:10017000000000000000000000000000000000007F
:10018000000000000000000000000000000000006F
:10019000000000000000000000000000000000005F
:1001A000000000000000000000000000000000004F
:1001B000000000000000000000000000000000003F
:1001C000000000000000000000000000000000002F
:1001D000000000000000000000000000000000001F
:0401E0005FF8E0F1F3
:1001E8000348044B834202D0034B03B118477047BE
:1001F800C0060020C0060020000000000548064B8D
:100208001B1AD90F01EBA301491002D0034B03B10C
:1002180018477047C0060020C006002000000000F4
:1002280010B5064C237843B9FFF7DAFF044B13B136
:100238000448AFF300800123237010BDC0060020DE
:10024800000000002480000808B5044B1BB10449D5
:100258000448AFF30080BDE80840CFE70000000085
:10026800C40600202480000881F0004102E000BF9D
:1002780083F0004330B54FEA41044FEA430594EA5E
:10028800050F08BF90EA020F1FBF54EA000C55EA99
:10029800020C7FEA645C7FEA655C00F0E2804FEA6A
:1002A8005454D4EB5555B8BF6D420CDD2C4480EA4C
:1002B800020281EA030382EA000083EA010180EA7C
:1002C800020281EA0303362D88BF30BD11F0004FCA
:1002D8004FEA01314FF4801C4CEA113102D0404200
:1002E80061EB410113F0004F4FEA03334CEA13333B
:1002F80002D0524263EB430394EA050F00F0A78053
:10030800A4F10104D5F1200E0DDB02FA0EFC22FA4D
:1003180005F2801841F1000103FA0EF2801843FA41
:1003280005F359410EE0A5F120050EF1200E012A32
:1003380003FA0EFC28BF4CF0020C43FA05F3C01870
:1003480051EBE37101F0004507D54FF0000EDCF1E9
:10035800000C7EEB00006EEB0101B1F5801F1BD392
:10036800B1F5001F0CD349085FEA30004FEA3C0C96
:1003780004F101044FEA445212F5800F80F09A808C
:10038800BCF1004F08BF5FEA500C50F1000041EB90
:10039800045141EA050130BD5FEA4C0C404141EB94
:1003A8000101013C28BFB1F5801FE9D291F0000F8F
:1003B80004BF01460020B1FA81F308BF2033A3F13E
:1003C8000B03B3F120020CDA0C3208DD02F1140C35
:1003D800C2F10C0201FA0CF021FA02F10CE002F170
:1003E8001402D8BFC2F1200C01FA02F120FA0CFC69
:1003F800DCBF41EA0C019040E41AA2BF01EB0451B2
:10040800294330BD6FEA04041F3C1CDA0C340EDCAF
:1004180004F11404C4F1200220FA04F001FA02F3F2
:1004280040EA030021FA04F345EA030130BDC4F1B0
:100438000C04C4F1200220FA02F001FA04F340EAA5
:100448000300294630BD21FA04F0294630BD94F056
:10045800000F83F4801306BF81F480110134013D3D
:100468004EE77FEA645C18BF7FEA655C29D094EAAE
:10047800050F08BF90EA020F05D054EA000C04BF2C
:100488001946104630BD91EA030F1EBF0021002017
:1004980030BD5FEA545C05D14000494128BF41F0B6
:1004A800004130BD14F580043CBF01F5801130BD1A
:1004B80001F0004545F0FE4141F470014FF00000A5
:1004C80030BD7FEA645C1ABF194610467FEA655C56
:1004D8001CBF0B46024650EA013406BF52EA0335F8
:1004E80091EA030F41F4002130BD00BF90F0000FE6
:1004F80004BF0021704730B54FF4806404F1320422
:100508004FF000054FF0000150E700BF90F0000FDA
:1005180004BF0021704730B54FF4806404F1320401
:1005280010F0004548BF40424FF000013EE700BFD1
:1005380042004FEAE2014FEA31014FEA02701FBF61
:1005480012F07F4393F07F4F81F06051704732F093
:100558007F4208BF704793F07F4F04BF41F40021EA
:10056800704730B54FF4607401F0004521F0004148
:100578001CE700BF50EA010208BF704730B54FF0D2
:1005880000050AE050EA010208BF704730B511F0D3
:10059800004502D5404261EB41014FF4806404F10B
:1005A80032045FEA915C3FF4D8AE4FF003025FEA91
:1005B800DC0C18BF03325FEADC0C18BF033202EB15
:1005C800DC02C2F1200300FA03FC20FA02F001FA6F
:1005D80003FE40EA0E0021FA02F11444BDE600BF12
:1005E8004FEA410212F5001215D211D56FF4787353
:1005F800B3EB625212D94FEAC12343F0004343EAF6
:10060800505311F0004F23FA02F018BF40427047D0
:100618004FF00000704750EA013005D111F000405A
:1006280008BF6FF0004070474FF00000704700BFF0
:1006380070B5860747D0541E002A3ED00346CAB27A
:1006480001E0013C39D303F8012B9D07F9D1032CB4
:100658002CD9CDB205EB05250F2C1A4605EB05451F
:1006680034D9A4F1100C2CF00F0603F1100EB64487
:100678004FEA1C1CC2E90055C2E902551032724506
:10068800F8D10CF1010214F00C0F03EB021204F084
:100698000F0C13D0ACF1040323F003030433134409
:1006A80042F8045B9342FBD10CF003042CB1C9B2AD
:1006B8001C4403F8011BA342FBD170BD64461346DA
:1006C800002CF4D1F9E703461446C0E7A446E1E755
:1006D800014B1868704700BF00000020032A30B49F
:1006E80015D941EA0004A40784460B4604D0541ED9
:1006F8000FE0043A032A08D91946604653F8044B18
:100708005CF8045BA542F4D0F1E760461946541E34
:100718007AB1431E0139021901E09A4209D013F84F
:10072800010F11F801CF6045F7D0A0EB0C0030BCE9
:100738007047002030BC704708B410B5002A044642
:100748009DB034DB4FF4027C4FF00003ADF814C0C9
:100758001B934FF6FF7C0291069120AB15D0013A0E
:100768000492079202A91F9A0193ADF816C000F0EF
:1007780055FA421C01DA8B2323600022029B1A706F
:100788001DB0BDE8104001B070470492079202A95D
:100798001F9A0193ADF816C000F040FA431C01DA25
:1007A8008B2323601DB0BDE8104001B070478B2338
:1007B8004FF0FF302360F5E70CB410B5204B00294B
:1007C8001C689CB036DB4FF000034FF402721B9399
:1007D8004FF6FF7C02900690ADF814201FAB16D0A0
:1007E80001391E9A04910791204602A90193ADF898
:1007F80016C000F013FA421C01DA8B232360002292
:10080800029B1A701CB0BDE8104002B070470491FA
:10081800079120461E9A02A90193ADF816C000F070
:10082800FDF9431C01DA8B2323601CB0BDE810409E
:1008380002B070478B234FF0FF302360F5E700BF0D
:1008480000000020844641EA000313F0030349D165
:10085800403A23D30B6803604B6843608B6883601E
:10086800CB68C3600B6903614B6943618B69836122
:10087800CB69C3610B6A03624B6A43628B6A83620A
:10088800CB6AC3620B6B03634B6B43638B6B8363F2
:10089800CB6BC36340304031403ADBD230320BD3AC
:1008A8000B6803604B6843608B688360CB68C360E8
:1008B80010301031103AF3D20C3205D351F8043B02
:1008C80040F8043B043AF9D2043208D0D2071CBFDE
:1008D80011F8013B00F8013B01D30B880380604607
:1008E800704700BF082A13D38B07B1D010F0030359
:1008F800AED0C3F10403D21ADB071CBF11F8013BC9
:1009080000F8013BA4D331F8023B20F8023B9FE7F3
:10091800043AD9D3013A11F8013B00F8013BF9D266
:100928000B7803704B7843708B7883706046704700
:1009380070B50F4B0F4DAB42A3EB050607D0002453
:10094800B61055F8043B01349847A642F9D807F089
:1009580065FB094D094B5E1BAB424FEAA60606D064
:10096800002455F8043B01349847A642F9D870BDD5
:10097800BC8A0008BC8A0008BC8A0008C48A00082F
:1009880000207047024A0349034800F025B900BF18
:100998002801002015380008080000200C4B416889
:1009A80010B59942044601D002F030FFA168094B06
:1009B800994202D0204602F029FFE168064B99428D
:1009C80004D02046BDE8104002F020BF10BD00BF93
:1009D800DC06002044070020AC07002000207047F8
:1009E8002DE9F84300250423294C2A490822C4F894
:1009F800381104F15C002946DFF89C90DFF89C80F0
:100A0800274F284EC4E90335C4E90055C4E9055504
:100A1800A5606566FFF70CFE234B0822294604F102
:100A2800C4006367C4E90749C4E90987C4E91A55DA
:100A3800C4E91E55E6622567C4F8CC50C4F8805056
:100A4800FFF7F6FD194B2946C4F8DC30082204F1FB
:100A5800680304F59670C4F88430C4E92298C4E9A0
:100A68002476C4E93455C4E93855C4F8D850C4F8D4
:100A78003451C4F8E850FFF7DBFD04F1D003C4E9B2
:100A88003C98C4E93E76C4F8EC30BDE8F88300BF72
:100A9800DC0600208D090008C1380008E938000884
:100AA800293900084D390008090001001200020028
:100AB800F8B5254B0646D3F83831002B3CD0234FE8
:100AC800D7E90134013B04D51DE05A1C04F1680440
:100AD80019D0B4F90C50013B002DF6D11C4B08225B
:100AE8002946C4E90155C4E90455E36065662560F3
:100AF800A56104F15C00FFF79BFDC4E90C55C4E94E
:100B080011552046F8BD3D680DB12F46D8E74FF482
:100B1800D671304601F08AFA044680B10423056094
:100B2800294625460C304FF4D072A0606360FFF769
:100B38007FFD3C602F46C3E7FFF752FFBFE70C235A
:100B480038603360DDE700BFDC06002028010020A4
:100B58000100FFFF436B03B17047044B044AD3F80D
:100B680038314263002BF7D13AE700BFDC0600209A
:100B7800A5090008704700BF704700BF0020024A5F
:100B8800024900F029B800BF28010020890900089F
:100B98000020024A024900F01FB800BF28010020C7
:100BA800E5090008002301461A46184602F0CEBEA1
:100BB80038B5074D074C2C1BA41005D0013C55F83F
:100BC800043D9847002CF9D1BDE8384007F02CBA0D
:100BD800C88A0008C48A00082DE9F8434FF00009C4
:100BE80080460F461646D6E90154013D10D4A38924
:100BF800012B08D9B4F90E30013304D02146404600
:100C0800B84749EA0009013D6B1C04F16804EED1BC
:100C18003668002EE7D14846BDE8F8832DE9F04F45
:100C2800C3B00C460C9192460E930D9003F006FD4E
:100C380003681846149302F0FFFEA389139019065F
:100C480003D52369002B00F0BE86002332AA19467B
:100C58009146CDE926332592129300220023D346EC
:100C6800CDE91023CDE915110A919BF80030002B2E
:100C780000F046815C4604E014F8013F002B00F0C8
:100C88002381252BF8D1B4EB0B0540F02081237884
:100C9800002B00F035814FF000034FF0000A8DF86B
:100CA80077304FF0FF33CDE9083A637804F1010B50
:100CB80098460BF1010BA8F12003582B00F22D8167
:100CC800DFE813F050022B012B014B022B012B0103
:100CD8002B012B012B012B01140245022B011E02B3
:100CE80023022B01400259005900590059005900AC
:100CF80059005900590059002B012B012B012B01D8
:100D08002B012B012B012B012B012B016800A601C4
:100D18002B01A6012B012B012B012B017B022B019F
:100D28002B0198002B012B012B012B012B01A90072
:100D38002B012B0158062B012B012B012B012B0119
:100D48002B012B012B012B012B016D026A00A6013F
:100D5800A601A60168026A002B012B015B022B0188
:100D6800B8029A00A702A2022B0180022B01AB0055
:100D78002B012B0179060022A8F130031BF8018B07
:100D880002EB820203EB4202A8F13003092BF5D9EA
:100D9800099290E74AF0100A1AF0200F00F07681C5
:100DA8000E9B073323F007031846596850F8083B91
:100DB8000A460E900029C0F2918108999DF87700A3
:100DC800002908DB2AF08001069153EA020100F0AD
:100DD800B583DDF818A00A2B72F1000180F089862E
:100DE80030338DF8C7300123CDF818A00B930DF1DF
:100DF800C70553E04AF0100A1AF0200200F05F819C
:100E08000E9B0021073323F0070318465A6850F851
:100E1800083B0E900FE04AF0100A1AF0200200F08A
:100E280044810E9B0121073323F0070318465A68B3
:100E380050F8083B0E900020089C8DF87700002C95
:100E480008DB2AF08004069453EA020400F0778352
:100E5800DDF818A00129BED0022900F0EF8232ADDA
:100E680003F00701DB0843EA4273D208303153EA42
:100E780002062C4605F8011DF2D11AF0010F00F008
:100E8800EB82302900F0E8823023023C05F8013C6F
:100E9800254632AB1B1BCDF818A00B93089B0B9A69
:100EA8009342B8BF1346079300230F9310B1079BD3
:100EB80001330793069B13F0020A42D0079B4FF0B9
:100EC800020A023307933CE0B4EB0B0518D0279BCA
:100ED800C9E900B52B442793269B0133072B26939A
:100EE80005DC09F108090A9B2B440A93CFE625AAD9
:100EF800DDE90C1002F074FD30B90DF1C809F2E714
:100F0800279B002B40F065870C9B9B895B0601F1B2
:100F18002A800A9843B0BDE8F08FB8F1000FEFD0EF
:100F280000238DF8773001238DF8A080079328AD32
:100F38000B93CDF818A04FF0000ACDF820A0CDF8FB
:100F48003CA0069B279C13F0840305D1099A0799B6
:100F5800561A002E00F305839DF8772082B10122EE
:100F6800C9F80420269A013401320DF17701072AC5
:100F780027942692C9F8001000F32C8309F1080978
:100F8800BAF1000F0FD00222C9F80420269A0234C1
:100F980001321EA9072A27942692C9F8001000F3E7
:100FA800278309F10809802B00F0BA81089B0B9A66
:100FB8009E1A002E00F3F881069BDE0500F1488199
:100FC8000B9BC9F800501C44C9F80430269B279491
:100FD8000133072B269300F35A8209F10809069B6F
:100FE8005A0705D5099B079A9D1A002D00F30E8311
:100FF800DDE9092307998A42ACBF9B185B180A935D
:10100800002C40F02F8200230DF1C80926932CE60E
:101018000E9B4FF0FF32073323F00703F3E8024536
:101028000E9325F0004319931894DDE91867B64B21
:1010380030463946CDE9104505F064FB002840F0FC
:1010480026844FF0FF3230463946AF4B05F03CFB63
:10105800002840F01C84002200232046294605F081
:1010680029FB002840F043869DF8770003220021E1
:101078002AF08003A54D0693A54BCDE90721B8F1C9
:10108800470FD8BF1D460B920F910FE70E9A1AF023
:10109800100F52F8043B0E921BD11AF0400F18D0D3
:1010A80043F3C03211461BB284E60E9951F8043B53
:1010B8000E911AF0100100F0E2830121BBE60E99AF
:1010C80051F8043B0E911AF0100100F0D08311463C
:1010D800B1E6DA1711460029BFF66FAE5B424FF052
:1010E8002D004FF0010162EB4202A5E60E9B53F87A
:1010F800042B002A09920E9304DA099B5B42099398
:101108004AF0040A9BF80030D2E5594611F8018BE1
:10111800B8F12A0F00F06F87A8F13003092B98BFA8
:10112800002200F2DF8611F8018B02EB820203EB4A
:101138004202A8F13003092BF5D942EAE2738B4643
:101148000893B8E59BF800304AF0800AB0E52B23F5
:101158008DF877309BF80030AAE59BF800304AF00C
:10116800010AA5E59DF877209BF80030002A7FF456
:101178009FAD20228DF877209AE59BF800306C2BE4
:1011880003BF9BF801304AF0200A0BF1010B4AF02B
:10119800100A8DE59BF800304AF0400A88E50022E5
:1011A80001210E9B8DF8772053F8042B07918DF8B9
:1011B800A0200E9328AD0B91BBE69BF800304AF0B7
:1011C800080A75E500260E9C089B54F8045B8DF808
:1011D8007760002D00F03285002BC0F203841A4698
:1011E8003146284603F0DCF9002800F06A86431BE4
:1011F8000B9323EAE3739DF8770008960E94CDF8D5
:1012080018A007930F9651E69BF800304AF0200A81
:101218004EE547F630030E9A3E48ADF8783052F85E
:10122800043B02210E924FF0780800224AF0020A8D
:10123800159000E61AF0200F00F00C830E9B0A9A16
:101248001B681A60D2175A600E9B04330E930CE584
:10125800B8F1650F40F32781DDE910010022002372
:1012680005F01EFA002800F00E820123C9F80430A8
:10127800269B294A01330134072B27942693C9F862
:10128800002000F3B48409F108091F9B129A9342C5
:1012980003DB069BDD077FF5A2AE139B149A1C4463
:1012A800C9E90023269B27940133072B269300F3D3
:1012B800B88409F10809129B5D1E002D7FF78FAED7
:1012C800102D269B40F3D780DDE90CA81026134F7C
:1012D80005E009F10809103D102D40F3CD800133D8
:1012E8001034072BC9E90076CDE92634F1DD5146E3
:1012F800404625AA02F074FB00287FF405AEDDE91C
:1013080026340DF1C809E6E7FFFFEF7FA48900083E
:10131800A0890008C4890008E089000850800008F6
:10132800099B079A9E1A002E7FF740AE102E269B27
:1013380040F3E0854A462146A946DDE90C544FF0C2
:10134800100AB74F04E0103E102E02F1080215DD16
:1013580001331031072BC2E9007ACDE92631F2DDDD
:101368002946204625AA02F03BFB00287FF4CCAD95
:10137800DDE92631103E102E32AAE9DC4D460C4636
:10138800914601333444072BCDE92634C9F800705F
:10139800C9F8046000F33884089B0B9A09F108091E
:1013A8009E1A002E7FF708AE102E269B9C4F2CDD30
:1013B8004A462146B1464FF0100A2E46DDE90C5444
:1013C80006E0A9F11009B9F1100F02F1080218DDC1
:1013D800013393481031072BC2E9000ACDE92631C1
:1013E800EFDD2946204625AA02F0FAFA00287FF404
:1013F8008BADDDE92631A9F11009B9F1100F32AA38
:10140800E6DC35460C464E46914601333444072BFC
:10141800CDE92634C9F80070C9F8046000F3F081FA
:1014280009F10809C8E501294FF00003DDF818A003
:101438003FF4D6AC02291A467FF411AD159C32ADA3
:1014480003F00F01615C1B0943EA0273120905F8F6
:10145800011D53EA0201F3D132AB5B1BCDF818A092
:101468000B931BE525AADDE90C1002F0B9FA002858
:101478003FF4C9AD48E56A4F01332C44072BC9F83E
:101488000070C9F80450CDE926347FF7A6ADDDE930
:101498000C1025AA02F0A4FA00287FF435AD279C89
:1014A8000DF1C8099BE5129B269E012B04F101044E
:1014B80006F1010609F1080840F35E810123072EB1
:1014C800CDE92664C9F80050C9F8043000F3A581B5
:1014D800139B0136149A1C44072EC8E90023CDE952
:1014E800266400F3A78108F10808129B0022DDE9B1
:1014F800100103F1FF39002305F0D2F8002840F06D
:101508005681013601354C44072ECDE92664C8F8CA
:101518000050C8F8049000F33D8108F10808169BB4
:1015280001361C44C8F80430072E21ABCDE92664E7
:10153800C8F80030ABDC08F1080950E50121089B28
:10154800002B7FF470AF002940F011811AF00103DD
:101558000B9300F07C8130230DF1C7058DF8C7305F
:101568009CE4102E269A2F4F26DD49462046A94690
:10157800DDE90C54179304E0103E102E01F1080128
:1015880016DD102301321030072ACDE926200F601E
:101598004B60F1DD2946204625AA02F021FA0028F1
:1015A8007FF4B2ACDDE92620103E102E32A9E8DC2B
:1015B8004D4604468946179B01323444072ACDE933
:1015C8002624C9F80070C9F8046000F3018309F102
:1015D8000809C1E425AADDE90C10179302F000FA06
:1015E80000287FF491AC279C179B0DF1C809C7E42C
:1015F80025AADDE90C10179302F0F2F900287FF410
:1016080083AC279C179B0DF1C809CCE4102D269BB1
:1016180040F36D84DDE90CA81026024F09E000BFF5
:101628005080000840800008103D102D09F108097D
:1016380016DD01331034072BC9E90076CDE92634CD
:10164800F2DD5146404625AA02F0CAF900287FF487
:101658005BACDDE92634103D102D0DF1C809E8DC3E
:1016680001332C44072BC9E90075CDE926347FF7EF
:10167800BFACDDE90C1025AA02F0B2F900287FF40E
:1016880043AC279CB4E41F99002940F36D820F9F57
:10169800129B9F42A8BF1F46002F0BDD269B3C4490
:1016A8000133072BC9E900572794269300F3EB83EE
:1016B80009F108090F9E002FA8BFF61B002E00F3A2
:1016C800A9811F9B129A934280F27881139A1499E8
:1016D8001444C9E90012269A27940132072A26924F
:1016E80000F3178309F10809129A0F99D31A561AA9
:1016F8009E42A8BF1E46002E0EDD269A0D440132DA
:101708003444072AC9F80050C9F80460279426927F
:1017180000F3C88309F10809002EB4BF1D469D1BBC
:10172800002D7FF75CAC102D269B7FF7A4AEDDE97A
:101738000CA81026B44F05E009F10809103D102D3A
:101748007FF79AAE01331034072BC9E90076CDE94B
:101758002634F1DD5146404625AA02F041F9002819
:101768007FF4D2ABDDE926340DF1C809E6E7089B22
:1017780032AD0B93FFF792BB069BD9073FF59EAEA0
:101788000123072ECDE92664C9F80050C9F80430B2
:101798007FF7C5AEDDE90C1025AA02F021F9002873
:1017A8007FF4B2ABDDE926640DF1C808B7E6129BF9
:1017B800012B7FF7B4AE112B40F349821025924FCD
:1017C800DDF834A007E008F10808A9F11009B9F11B
:1017D800100F40F33D8201361034072EC8E900751A
:1017E800CDE92664EFDD50460C9925AA02F0F8F8F9
:1017F80000287FF489ABDDE926640DF1C808E4E729
:1018080025AADDE90C1002F0EBF800287FF47CAB88
:10181800279C0DF1C809FFF7CFBB25AADDE90C10FD
:1018280002F0DEF800287FF46FABDDE926640DF1E5
:10183800C8084DE625AADDE90C1002F0D1F8002809
:101848007FF462ABDDE926640DF1C8084DE632ADE0
:10185800FFF724BB1AF0100F40F002811AF0400F76
:1018680000F0FE800E9B0A9A1B681A80ECE41AF0BE
:1018780040021CBF0A469BB21146FFF7DCBA1AF0B9
:1018880040021CBF0A469BB20121FFF7D4BADDE92A
:10189800100102460B4604F035FF002840F075831E
:1018A800089B28F020065A1C00F0F982472E03D125
:1018B800002B08BF012308934AF48070DDE9101259
:1018C800002A0690C0F23A8200231793DDE910340B
:1018D800CDE91A34B8F1650F00F0008300F33582C2
:1018E800B8F1450F00F0FA82089B0D980193022386
:1018F800009323AB049320AB03931FAB0293DDE962
:101908001A2300F0DFFE1AF0010F054600F0AE8042
:10191800089BC4180022DDE91A01002304F0C0FE68
:10192800002840F03382239BA34206D230215A1C60
:1019380023921970239B9C42F9D81F9A0F925B1B24
:10194800472E129300F09780B8F1660F40F0998007
:101958000F99089A0AF00103002943EA020340F3A9
:101968006982002B40F02C830F9B4FF06608079389
:101978000B9324E2254B15931AF0200200F0AB805C
:101988000E9B073323F0070319465A6851F8083BA2
:101998000E911AF0010F00F09B8053EA020100F04B
:1019A800978030218DF879808DF878104AF0020AF6
:1019B8000221FFF740BA164B1593DDE7069AD007C8
:1019C8007FF592AE82E640210D9800F02FFB0C9B2C
:1019D80018601861002800F0C38240230C9A5361F4
:1019E800FFF733B9284602F027F8034623EAE373E2
:1019F8000B9008969DF877000E94CDF818A00F96D6
:101A08000793FFF753BA00BF50800008B089000859
:101A1800C4890008102E269B40F3FC822246DDE98B
:101A28000C4A4FF01008C14F05E009F10809103EB3
:101A3800102E40F34D8101331032072BC9E900788D
:101A4800CDE92632F1DD2146504625AA01F0C8FF2E
:101A580000287FF459AADDE926320DF1C809E6E726
:101A68000E9B0A9A1B681A60FFF7EEBB239B1B1A92
:101A780012931F9B0F930F9BDF1C80F28B81A8F1A1
:101A880002080F9A8DF88480531E002BA8BF2B22C2
:101A98001F93BCBFC2F101032D22092B8DF88520AD
:101AA80000F39E8130338DF8873030238DF88630EF
:101AB80004231693129A169B012A13440B9340F39E
:101AC80035820B9B139A134400220B930F9273E1F8
:101AD8000221FFF7B0B90E9951F8043B0E911AF0A4
:101AE80010017FF456AF1AF040021CBF0A469BB2A1
:101AF8004FE74FF0CC3E0527CDE9068A8C4C32AD36
:101B08009C461646991841F10001A4FB018A2AF067
:101B1800030808EB9A08A1EB08015B1A62F10008B8
:101B28000EFB03F204FB0822A3FB048308F0010A5E
:101B38001A44AAFB073A5B18BCF10A0F03F13003F9
:101B48004FEA580876F1000605F8013D48EAC273E5
:101B58004FEA5202D4D2DDE9068A32AB5B1BCDF8DC
:101B680018A00B93FFF79AB90123C9F80430269BF4
:101B7800704A01330134072B27942693C9F80020B3
:101B880000F3BA8009F1080900296DD1069B129A61
:101B980003F0010313433FF422AA139B14991A1963
:101BA800C9E90013269B27920133072B269300F3DC
:101BB8004A8109F10809129901338C18072BCDE9DC
:101BC8002634C9F80050C9F804107FF706AA5EE465
:101BD80025AADDE90C10179301F002FF00287FF415
:101BE80093A9279C179B0DF1C809FFF7B5B925AA3A
:101BF800DDE90C1001F0F4FE00287FF485A9279C8C
:101C08000DF1C809FFF741BB25AADDE90C1001F069
:101C1800E7FE00287FF478A9279C0DF1C809FFF793
:101C2800C5B925AADDE90C1001F0DAFE00287FF419
:101C38006BA9279C0DF1C809FFF73DBB062B28BFF0
:101C480006233D4D0B930E940793FFF772B9374F58
:101C580001364C44072ECDE92664C8F80070C8F850
:101C680004907FF75AAC95E5139B14981A19C9E9A3
:101C78000003269B27920133072B269300F3E3806A
:101C880009F10809002996DA4E42103180F23581AF
:101C9800DDE90CA81024254F05E009F10809103EDC
:101CA800102E40F32B8101331032072BC9E9007441
:101CB800CDE92632F1DD5146404625AA01F090FED5
:101CC80000287FF421A9DDE926320DF1C809E6E7ED
:101CD800144601333444072BCDE92634C9F8007083
:101CE800C9F8046000F3BD8009F10809E9E42D2072
:101CF8008DF87700FFF7BAB925AADDE90C1001F0D5
:101D08006FFE00287FF400A91F99279C0DF1C809D0
:101D18003AE725AADDE90C1001F062FE00287FF4FD
:101D2800F3A81F9B279C0DF1C809DDE4508000082B
:101D3800CDCCCCCCE0890008D88900082D23179396
:101D480002F100431A911B93C4E5B8F1660F7FF4C2
:101D5800CBAD0323089FCDE9003723AB049320AB19
:101D680003931FAB02930D98DDE91A2300F0AAFC38
:101D7800B8F1660F054600EB07047FF4CBAD2B786E
:101D8800302B00F0F5801F9F3C44C3E51F9A234683
:101D98000F92D4E5089A9A42FFF671AE129B0F9AF9
:101DA800934200F3C9801AF0010F0F9B1CBF139ACE
:101DB8009B180B934FF0670823EAE3730793179B6D
:101DC800002B5AD02D238DF8773000230893FFF786
:101DD8006EB825AADDE90C1001F002FEFFF794B8F1
:101DE8000DF1930632468C4F1C461046A7FB032183
:101DF800C90801EB8102A3EB42023032632C00F8E0
:101E0800012C0B4600F1FF32EEDC303302F8013CC6
:101E1800831EB34280F0FB800DF1850213F8011B8D
:101E2800B34202F8011FF9D142AB181AA0F17103AD
:101E380016933FE6002B40F0D28001234FF066084E
:101E480007930B93BBE725AADDE90C1001F0C8FD49
:101E580000287FF459A8DDE926321F990DF1C80939
:101E680010E725AADDE90C1001F0BAFD00287FF47F
:101E78004BA8279C0DF1C80923E4179B9DF8770010
:101E88000893FFF713B825AADDE90C1001F0A8FDA7
:101E980000287FF439A8279C0DF1C8090AE4062315
:101EA800089309E525AADDE90C1001F099FD002841
:101EB8007FF42AA81F9B129A279C0DF1C809D31AF0
:101EC8002AE4089B0E9407930B9303460890CDF8D9
:101ED80018A09DF877000F93FEF7E8BF089A022331
:101EE800571C38E700238B460893FEF7E4BE4B4F98
:101EF800FFF7B6BB4A4FFFF744BA494F01333244A4
:101F0800072BCDE92632C9F80070C9F804607FF7BD
:101F180050AEDDE90C1025AA01F062FD00287EF420
:101F2800F3AFDDE926320DF1C80944E61AF00102E3
:101F38000F927FF4C6AD3FE7DDE9123213440F9AE2
:101F48000B93002A3FF736AF0F9B0B9AC3F101039F
:101F58001A4422EAE2734FF067080B9207932EE7C0
:101F68000C230D9A13604FF0FF330A93FEF7D1BF8D
:101F78000022DDE91A01002304F092FB50B31F9BF5
:101F88001C440F93631B1293E2E4119B0322002B62
:101F9800B8BF2D204FF000012AF08003214D069391
:101FA800214BACBF9DF877008DF87700CDE907216C
:101FB800B8F1470FD8BF1D460B920F91FEF776BFB9
:101FC800139B4FF066081A4453180B9323EAE373E4
:101FD8000793F4E6C7F101071F973C449AE4139B63
:101FE80003F10108089B43440B9323EAE3734FF082
:101FF80066080793E3E60E9A9BF801308B4652F881
:10200800041B0E9241EAE1720892FEF751BE0223C8
:1020180016934FE5024F5CE6CDCCCCCC408000084F
:1020280050800008AC890008A88900082DE9F04F05
:1020380001F10B05162D064683B024D8102900F2AD
:10204800AD8001F0C9FC102518234FF0020CC14FD8
:102058003B445C68A3F10802944200F023813046B7
:102068006368E268A16823F00303CA6023449160AF
:102078005A68083442F001025A6001F0AFFC204669
:1020880003B0BDE8F08F35F0070500F18780A9425D
:1020980000F2848001F0A0FCB5F5FC7FC0F06C81F3
:1020A8006B0A7FD0042B00F22481AB0903F1390CB1
:1020B80003F1380E4FEACC00A64F3844446808387C
:1020C800A04207D10DE0002AE16880F2E58088424D
:1020D80007D00C46636823F003035A1B0F2AF2DD6E
:1020E800F446DFF874823C69444500F0C2806368B6
:1020F80023F00309A9EB05030F2B00F34281002B02
:10210800C7E9048880F22C81B9F5007FD7F804E08C
:1021180080F0CF8001234FEAD9014FEA59191944B9
:1021280003FA09F357F831204EEA030E07EBC1030F
:10213800083BA260E360C7F804E047F83140D46088
:1021480001204FEAAC039840704532D810EA0E0FD0
:1021580007D12CF0030C400010EA0E0F0CF1040C10
:10216800F9D007EBCC0AD646E146DEF80C300BE096
:1021780059681C4621F003014A1B0F2ADB6800F34B
:10218800C580002A80F2D9809E45F1D109F1010964
:1021980019F0030F0EF1080EE7D11CE10C23336090
:1021A80000246CE74FF400704FF0400C4FF03F0EE6
:1021B80082E7BC68636823F00309A94503D3A9EB48
:1021C80005030F2B58DCDFF894B104EB0903DBF8A7
:1021D80000200820103202EB0508009301F05EFB96
:1021E800D7F808140246013105D008F1FF388044B9
:1021F800414201EA080841463046009201F04AFC93
:10220800B0F1FF3F8246009A00F0D68004EB090344
:10221800834200F2CF80DBF8041002F1FF3C414416
:102228000846CBF8041040F0F3801AEA0C0F40F08F
:10223800EF80D7F808A0C84448F00100CAF80400A5
:102248005446DBF82C208A42DBF8302038BFCBF824
:102258002C108A4238BFCBF8301020F00308A8456C
:10226800A8EB050301D30F2B06DC304601F0B6FBC3
:1022780096E7D7F804E063E7621943F0010345F0F5
:10228800010565603046BA600834536001F0A6FB6A
:10229800204603B0BDE8F08FA2683046D1602344E1
:1022A8008A60E5E6DC68A3427FF4D9AE0CF1020C43
:1022B80017E7B9F5206F4FEA592274D3142A00F2B0
:1022C800078102F15C03DB005B32F918FB5808391F
:1022D800994203D1E4E09B68994204D05A6822F0FD
:1022E80003024A45F7D8D968C4E902318C60DC603A
:1022F80026E7142B63D9542B00F2F3802B0B03F140
:102308006F0C03F16E0E4FEACC00D5E6D4F808C086
:102318003046661945F001056560CCF80C30C3F805
:1023280008C042F00103C7E90466C6E90288736081
:10233800625001F053FB0834A1E621444A68304654
:1023480042F001024A6054F8082FD3609A6001F005
:1023580045FB94E6380100204001002018080020C1
:10236800A144D9F80430304643F00103C9F80430D9
:1023780001F034FB083482E64FEAD50C05F1080376
:1023880065E6621943F0010145F0010565603046D4
:10239800C7E90422C2E90288516044F8093001F013
:1023A8001DFB08346BE64FEA991202F13903DB0092
:1023B80038328AE7BC4224D0BC6860684DE703F134
:1023C8005C0C03F15B0E4FEACC0075E65AF808394D
:1023D800534540F0D6801CF0030F0CF1FF3CF5D1BB
:1023E8007B6823EA00037B60400098423FF6E1AE39
:1023F80018B9DEE6400009F104091842FAD0CC46C3
:10240800AFE6DBF8040002F1FF3C4044CBF80400DF
:10241800D7F8081401316FD004EB0903AAEB0303C2
:102428001844CBF804001AF00703009341D0C3F115
:1024380008018A44D0440A4408EA0C01521A02EA04
:102448000C013046019101F025FB421C71D0019925
:10245800A0EB0A0000EB0108DBF8042048F00100BB
:102468001144BC42C7F808A0CBF80410CAF804000D
:102478003FF4E6AEB9F10F0F41D905236268A9F11F
:102488000C0020F0070002F00102024362600F28EE
:1024980004EB0002C2E9013353D8DAF80400CFE6AE
:1024A8000120921000FA02F24EEA020EC7F804E088
:1024B8001AE70AEB080101EA0C01521A02EA0C01B8
:1024C8003046019101F0E6FA431CC0D10099C3E7F8
:1024D800542A18D84FEA193202F16F03DB006E3222
:1024E800F3E6B3F5AA7F18D8EB0B03F1780C03F1E8
:1024F800770E4FEACC00DFE5C7F808A493E701237D
:10250800CAF80430B1E6B2F5AA7F24D84FEAD93226
:1025180002F17803DB007732D7E640F25452934257
:1025280024D8AB0C03F17D0C03F17C0E4FEACC00F0
:10253800C2E5009B0021A3F108029044A8EB0A0819
:102548008AE704F10801304601F064F8DBF804106A
:10255800D7F808A0A1E740F254539A420DD84FEAA1
:10256800994202F17D03DB007C32AEE64FF47E70C7
:102578004FF07F0C4FF07E0E9EE54FF47E737E2267
:10258800A3E67B6830E700BF2DE9F04F03690C69CB
:1025980085B0A342C0F291808146013C01F1140547
:1025A80009F1140855F8243058F824C001339C4523
:1025B800BCFBF3F64FEA840005EB840708EB8402C2
:1025C80043D34FF0000CAA46CDE90105C646634641
:1025D80065469346CDF80C805AF8040BDEF80020C7
:1025E8001FFA80FC06FB0C554FEA10484FEA154CC1
:1025F80006FB08CCADB290B2401B18441FFA8CF30E
:10260800C3EB204303EB124380B240EA0340574533
:102618004EF8040B4FEA1C454FEA2343DCD2DDE9B0
:102628000105DDF80C8058F8003073B9ABF10402ED
:10263800904504D307E0904504F1FF3403D252F8E3
:102648000439002BF7D0C9F81040484601F046FD80
:1026580000282EDB4146002255F8040BD1F800C0B3
:102668001FFA80FE1FFA8CF3A3EB0E031344020C2F
:10267800C2EB234202EB1C429BB243EA0243AF4245
:1026880041F8043B4FEA2242E6D258F8242008EBEE
:1026980084036AB9043B434504D807E0984504F12C
:1026A800FF3403D253F80429002AF7D0C9F81040A0
:1026B8000136304605B0BDE8F08F002005B0BDE812
:1026C800F08F00BF2DE9F04F16461F46816B9DB075
:1026D800CDE90667299D039049B10123C26B0446E1
:1026E80093408B604A6001F045FA0023A363B7F179
:1026F8000009B4BF012300232B60794BBCBF29F02C
:102708000049CDF81C9033EA090300F0AD80DDE9FB
:1027180006341846214600220023CDE9040103F0BF
:10272800BFFF804668B10123289A13602A9B13B122
:102738006C4B2A9A13606C4B089308981DB0BDE83F
:10274800F08F1AAB01931BAB00930398DDE90423C8
:1027580001F022FE5FEA1955824640F09B80DDE9D0
:102768001A85454405F23243202B40F38D83C3F18B
:10277800400309FA03F905F2124326FA03F349EA7A
:102788000300FDF7B3FE0123013D1193A1F1F87198
:102798000022564BFDF76CFD4BA3D3E9002303F051
:1027A80017FD4BA3D3E90023FDF764FD0646284631
:1027B8000F46FDF7ABFE48A3D3E9002303F008FD5D
:1027C80002460B4630463946FDF754FD06460F468D
:1027D800FDF706FF002204460990002330463946DB
:1027E80003F068FF002840F02583099CA8EB050842
:1027F80008F1FF33162C0A9300F29181DDE90401F8
:102808003B4B03EBC403D3E9002303F053FF002839
:1028180074D0631E09930023109308F1FF33002B33
:10282800C0F2848100230B93099B002B6CDA099B6F
:102838000B9A0E93D21A5B420F9300230993269B9F
:102848000B92092B6AD8052B40F323830025043B00
:102858002693269B023B032B00F24186DFE813F008
:1028680072046F0466044A0442F20F73289AC9F38B
:10287800130959EA060913601CD12A9B002B00F0A2
:102888004E861C4B089308332A9A089813601DB08B
:10289800BDE8F08FDDE90412C2F31303084643F0E4
:1028A8007F51CDF84480A5F2FF35DDF8688041F40A
:1028B80040116DE72A9B002B40F0F7830E4B0893DD
:1028C8003BE700BFAFF3008061436F63A787D23F48
:1028D800B3C8608B288AC63FFB799F501344D33F07
:1028E8000000F07FE1890008E08900080000F83F57
:1028F80070800008E4890008F0890008B8F1000F2A
:1029080040F3A88410900B90DDE9092313440A933F
:1029180000230F93269B0E92092B94D9002301259F
:102928004FF0FF3B269327930C950021039BCDF88E
:1029380060B0D963039801F0F7F80890002800F018
:10294800D785039B089ABBF10E0F9A6300F2198191
:10295800002D00F016810E99002940F34984B44BEC
:1029680001F00F0203EBC203C8054FEA2115D3E9B2
:10297800006740F10A84DDE90401AE4B4FF003091A
:10298800D3E9082303F04EFDCDE9120105F00F0548
:102998008DB1DFF8A082E90709D5D8E900233046D0
:1029A800394603F015FC06460F4609F101096D107A
:1029B80008F10808EFD1DDE912013B46324603F081
:1029C80031FD07468846109B43B1002238464146F0
:1029D800994B03F06FFE002840F010854846FDF73C
:1029E80095FD3A46434603F0F3FB0022934BFDF76F
:1029F80041FC0446A1F15075BBF1000F00F0AA801C
:102A08000E9BCDF848B0199341463846FDF7E8FDCE
:102A18001299874BCDE9144503EBC10353E90234FE
:102A28000546CDE91634FDF771FD0B4602464146D1
:102A38003846FDF71DFC089F0C9B30357E1CECB218
:102A4800804689463546002B00F06E84DDE9162362
:102A580000207B4903F0E6FCDDE91423FDF708FCC0
:102A68003C7042464B4604460D4603F041FE0028A2
:102A780040F0BB84CDF850A0CDF858B00027AB4645
:102A8800A246129D2AE00137AF4280F201855046E6
:102A9800594600226B4B03F09BFB0022694B824690
:102AA8008B464046494603F093FB89468046FDF72E
:102AB80097FD0446FDF72AFD02460B464046494667
:102AC800FDF7D6FB303452465B4606F8014B80468C
:102AD800894603F0EFFD002840F0D78442464B4674
:102AE80000205549FDF7C4FB52465B4603F0E2FD62
:102AF8000028C8D0199B3746DDF850A0089A03F182
:102B0800010802E0974200F09F843E4617F8013D15
:102B1800392BF7D00133DBB245463B7079E101230D
:102B2800109308F1FF33002BBFF67CAEC8F1010308
:102B38000B9300230A9377E64846FDF7E7FC3A46ED
:102B4800434603F045FB00223C4BFDF793FB04464C
:102B5800A1F15075384600223B4B4146FDF788FBF2
:102B680022462B4606460F4603F0C2FD002840F0D9
:102B78007A8430463946224605F1004303F09AFD2F
:102B880028BB1B9B002BC0F291800E9A0E2A00F3E3
:102B98008D80274B0E9A03EBC203D3E90034CDE9AD
:102BA8000634279B002B19DABBF1000F16DC0ED177
:102BB800DDE906010022244B03F00AFB02460B461E
:102BC800DDE9040103F080FD002800F04C840023B7
:102BD8001F46089E0493279BDD432DE2089B5D1C3E
:102BE800DDE90678DDE904013A46434603F01AFCBC
:102BF800FDF7F6FC0646FDF789FC3A46434603F026
:102C0800E7FA02460B46DDE90401FDF731FB089AB5
:102C180006F13003BBF1010F2F46137000F0258336
:102C28000125CDF810A0A846DDE9069A2CE000BFE2
:102C380070800008608100080000F03F00001C4020
:102C48000000E03F00002440000014404A4653467C
:102C58002046294603F0E6FBFDF7C2FC0646FDF7D1
:102C680055FC4A46534603F0B3FA08F101080B46EF
:102C7800024629462046FDF7FBFA06F13003D845FF
:102C880007F8013B00F0EF820022834B03F0A0FA23
:102C98000022002304460D4603F002FD0028D5D08B
:102CA8000E9D3E46DDF810A00135B2E00C9A002AD0
:102CB80040F0D68000231F460F9E0B9D0C9365B1F4
:102CC8000A9900290B4608DDA942A8BF2B460B9A92
:102CD800ED1AD21ACB1A0B920A930F9B53B10C9B85
:102CE80013B1002E40F0FC8251460F9A039801F070
:102CF80025F982460121039801F040F8099B0490C8
:102D0800002B40F0BD81269B012B40F3D38101208D
:102D18000A9A104410F01F0000F09980C0F12003B7
:102D2800042B40F3E2810B9BC0F11C0003440244D6
:102D38000B9305440A920B9B002B05DD51461A465E
:102D4800039801F055F982460A9B002B05DDDDE961
:102D580003011A4601F04CF90490109B002B40F037
:102D68007481BBF1000F40F34B810C9B002B40F0AA
:102D7800A2800E9D01350126DDE90394DDF820804F
:102D880007E0514600230A22484600F0FDFE82462D
:102D9800013621465046FFF7F7FBB34500F13000F6
:102DA80008F8010BEDDCBBF1000FCCBF5E46012635
:102DB80081460024089B03EB060B51460122039829
:102DC80001F016F90499824601F088F9002840F3C9
:102DD800F081089A02E0934500F005821BF8013C57
:102DE8005E46392B0BF1FF3BF5D001338BF80030F1
:102DF800DDE90381404600F0BDFE57B12CB1BC426D
:102E080003D02146404600F0B5FE3946039800F04D
:102E1800B1FE5146039800F0ADFE00233370289BA5
:102E28001D602A9B002B3FF488AC08981E601DB0DB
:102E3800BDE8F08F2046FDF769FB32463B4603F0BC
:102E48002FFC00287FF4D1AC631E0993CDE41C232A
:102E58000B9A1D441A440B920A9A1A440A926AE77A
:102E6800269A012A40F3B0810F9B0BF1FF36B3423B
:102E7800C0F26B81BBF1000FA3EB060680F2F7826C
:102E88000B9BA3EB0B056EE1C3F1200306FA03F0DD
:102E980077E40125DDE400BF000024403946002323
:102EA8000A22039800F070FE189B0746002B40F397
:102EB80007839B460E96002D05DD39462A46039862
:102EC80001F096F80746099B002B40F0ED81B846C3
:102ED800089B1E46013B03EB0B04069B03F0010312
:102EE800CDE90A43039C04995046FFF74DFB394648
:102EF8008346504601F0F2F80499054642462046BA
:102F080001F00CF9C36801460BF13009ABBB09901D
:102F1800504601F0E3F809990990204600F02AFE8E
:102F2800099A002A54D1269B1BB90B9B002B00F051
:102F3800B582002D3FDBB3460A9B0BF8019B9E42EE
:102F480000F0C981514600230A22204600F01CFEE9
:102F58004745824639464FF000034FF00A022046A3
:102F680030D000F011FE414600230A2207462046D1
:102F780000F00AFE5E468046B5E7039800F0FAFDC9
:102F8800002D06DB069B03F00102269B1D432A4306
:102F980029D151460122039801F02AF80499824662
:102FA80001F09CF8002840F3F880B9F1390F00F0DF
:102FB80050820BF131090E9D3C460135474606F813
:102FC800019B15E700F0E0FD5E46074680468AE76C
:102FD800002DC0F29B82269B1D430B9B1D4300F0D6
:102FE8009582002AA7DDB9F1390F00F032820E9DD3
:102FF80009F101033C460135474606F8013BF7E66F
:10300800269B022B7FF7B1AEBBF1000F40F0298160
:103018005B4605220499039800F0B6FD014604902A
:10302800504601F05BF8002840F31B8131230E9DC8
:10303800089E013506F8013BDDE9030100F09AFD21
:103048000135002F7FF4E1AEE3E65046049901F024
:1030580045F80028BFF685AE514600230A2203989A
:103068000E9C00F091FD0C9B8246661E002B7FF49F
:1030780015AF189B002B40F318829B460E9D7AE6ED
:1030880001461A46039800F059FF269B0490012B2D
:103098006FDD00230993049A136902EB830318690F
:1030A80000F01CFEC0F1200032E69B4B089303336E
:1030B800FFF7EABB069B002B7FF429AEDDE9061279
:1030C800C2F31303002B7FF422AE944B134033B1A9
:1030D8000B9B01330B930A9B01330A930123099A33
:1030E8000993002A3FF413AED5E73FF424AEC0F1AC
:1030F8003C03ADE601230C93279B0E9A134403F17E
:10310800010B5E46012EB8BF01261893172E40F317
:103118000182012204235B0003F11400B04211462E
:1031280002F10102F7D9039BD96303E401230C934D
:10313800279B002B38DD9B461E461893E6E70023A5
:103148000C93D9E700230C93F2E70F9B0F96F31A21
:103158000026099A1A440A9B09925B440A930B9B1E
:103168001D465B440B930121039800F007FE0746B8
:10317800A5E5069B002B8CD1DDE90601C1F31303FD
:103188000A46002BA1D0099085E7DDE904344FF009
:103198000209CDE91234FFF7FBBB7FF40CAF19F03D
:1031A800010F7FF402AF06E701239B462793FFF741
:1031B800BCBB03D119F0010F7FF40BAE5E461BF8C0
:1031C800013D302BFAD013E6119A002A00F09F80B7
:1031D80003F233430A9A0F9E1A440A920B9A154631
:1031E8001A440B92BFE73123089A01351370FFE5A3
:1031F80000F0FE80DDE904010E9A494B554205F0C6
:103208000F0203EBC203D3E9002302F0E1FF2D1103
:10321800CDE9120100F05D8100234FF00209074655
:103228008846404EEA070AD5D6E900233846414683
:1032380002F0CEFF01230746884609F101096D1007
:1032480006F10806EED1002B7FF4BDABDDE912785C
:10325800FFF7B9BBC8F101030A900B931090FFF771
:1032680053BB089EB7E4DDF810A002460B46FDF7F5
:1032780001F803460C46DDE906010E9D1A46CDE924
:10328800043401352346A84603F014FA40B9DDE9B1
:103298000423DDE9060103F003FA18B1F30701D5A9
:1032A800089A32E43E46B4E50398796800F03CFC9D
:1032B8000546002800F023813B6907F10C01023321
:1032C8009A000C30FDF7BEFA01222946039800F057
:1032D8008FFE8046FCE50E9D3C46013547466CE571
:1032E800039C39463246204600F028FE07465246DF
:1032F8003946204600F070FD51468246204600F0CF
:1033080039FC0F9B9B1B0F933FF4F4ACECE41A9B26
:10331800C3F136035EE700BFF08900080000F07FC4
:103328007080000860810008DDE91623DDE91401DA
:1033380002F04EFF089BCDE90C011C70129B012B7B
:1033480000F0C580129F089B11961F4400227C4BF9
:103358004046494602F03CFF0D460446FDF740F959
:103368008146FDF7D3F802460B4620462946FCF76E
:103378007FFF09F1300906F8019BBE428046894665
:10338800E4D1119D0022DDE90C016E4BFCF772FFC0
:1033980002460B464046494603F0AAF900286ED17A
:1033A800DDE90C2300206749FCF762FF02460B4663
:1033B8004046494603F07EF980B91B9B002BFFF677
:1033C80079AC0E9B0E2B3FF775AC5F4B0E9A03EB57
:1033D800C203D3E90034CDE9063401E417F8013C0F
:1033E8003E46302B07F1FF37F8D0199D013510E51F
:1033F8004FF00209DDE90478FFF7E5BABBF1000FE9
:103408003FF49AAB189C002C7FF7BBAB0E9B384659
:10341800013B414600221993494B02F0D9FE02466E
:103428008846174609F10100FDF770F83A46434609
:1034380002F0CEFE0022454BFCF71CFF1294A1F1CE
:1034480050750446FFF7E0BA312308F10108FFF789
:1034580063BBB34639230E9D3C46089A474601355F
:103468000BF8013BBAE400231F460493DEE50A9BF0
:103478005B440A930B9B1D465B440B9373E6199BB5
:10348800089A03F10108FFF740BBDDF850A0ACE74C
:10349800DDF850A0DDF858B0FFF773BBB9F1390F6C
:1034A800D7D0002D3FF785AD85E5269B022B03DCA1
:1034B8000E9DDDF860B05EE4DDF860B00E96A3E521
:1034C800269B022BF8DCDDF860B00E96F3E4374655
:1034D80058E74FF00209DDE91278FFF774BA0025C2
:1034E800039B29461846DD6300F01EFB0890D0B9FF
:1034F800002240F2AF11164B164800F0EFFA0246D0
:1035080040F2EF21124B134800F0E8FA002A3FF787
:1035180040AD50E50021039BD963FFF70BBA0E4B72
:103528000893FFF70AB9039B089A4FF0FF3B9A6389
:1035380001232795CDF860B00C93FFF722BB00BF9D
:10354800000024400000E03F7080000800001C409C
:10355800F4890008088A0008E48900082DE9F8437E
:1035680006460820894600F099F90546DFF8988054
:10357800304600F031FAD8F808305F6827F00307C2
:10358800A7F11104A4EB09042C44B4FBF5F4013CA5
:1035980005FB04F4A54208DC0021304600F07AFA65
:1035A800D8F808303B44984205D0304600F016FA67
:1035B8000020BDE8F8833046614200F06BFA013024
:1035C8000FD0124AD8F808303F1B47F001075F6058
:1035D800136830461B1B136000F000FA0120BDE899
:1035E800F8830021304600F055FAD8F80820831AED
:1035F8000F2BDADD43F001035360054B03491B68C9
:10360800C01A0860D1E700BF380100201C0800205C
:103618004005002000297CD0F8B50C46064600F08D
:10362800DBF954F8043C764FA4F1080523F00101B6
:103638006818D7F808C04268844522F0030200F0F1
:103648008380DB07426000EB020C33D454F8084C4B
:10365800DCF804302D1B2144AC6807F1080C6445E4
:1036680003F0010364D0D5F80CE0C4F80CE0CEF800
:103678000840002B00F0818041F001036B6001607D
:10368800B1F5007F22D20122CB0849098A40796826
:1036980001330A437A6057F8331007EBC302083A3C
:1036A800C5E9021247F83350CD603046BDE8F8400E
:1036B80000F094B9DCF80430DB072BD541F00103A6
:1036C800B1F5007F44F8043C0160DCD3B1F5206F0C
:1036D8004FEA512353D28B0903F1390003F1380221
:1036E800C300F818FB580838984203D161E09B687A
:1036F800984204D05A6822F003028A42F7D8D86860
:10370800C5E9023085603046DD60BDE8F84000F06C
:1037180065B97047114407F1080C836863453FD0C9
:10372800C268DA60936041F001036B606950A7E7F3
:10373800002B5FD10A44D0E90213CB60996042F0B4
:1037480001036B60AA50B0E70A44D90707D454F8BC
:10375800083CED1A1A44D5E90213CB60996042F08F
:1037680001036B60274BBD601B6893429DD8264BB5
:1037780030461968FFF7F2FE97E71144CDE7142B9E
:1037880008D9542B1DD80B0B03F16F0003F16E02FF
:10379800C300A6E703F15C0003F15B02C300A0E7E6
:1037A80041F00103C7E90455C5E902CC6B606950D3
:1037B8007BE70121921001FA02F279680A437A60E4
:1037C8009EE7B3F5AA7F06D8CB0B03F1780003F187
:1037D8007702C30085E740F25452934206D88B0C17
:1037E80003F17D0003F17C02C3007AE74FF47E7396
:1037F8007E2276E741F001036B60016055E700BF68
:1038080038010020440500201808002070B539B19F
:1038180006460C4608B1436B83B3B4F90C3013B9B0
:103828000025284670BD2146304600F02FFFE36A88
:10383800054633B13046E16998470028B8BF4FF0D4
:10384800FF35A3891B061CD4216B41B104F1400349
:10385800994202D03046FFF7DDFE00232363616CF6
:1038680021B13046FFF7D6FE00236364FDF782F9E5
:103878000023A381FDF780F9284670BDFDF76AF99A
:10388800CBE730462169FFF7C5FEDDE7024B01466D
:103898001868FFF7BBBF00BF00000020082802D14E
:1038A8004FF48050704708B5FCF712FF1622034604
:1038B8004FF0FF301A6008BD10B50C46B1F90E1074
:1038C80001F050F8002803DB236D0344236510BD85
:1038D800A38923F48053A38110BD00BF0020704743
:1038E8002DE9F0410C46B1F90C101F46CB050546F1
:1038F80016460BD421F48051A1813B463246284616
:10390800B4F90E10BDE8F04100F050B8B4F90E104B
:103918000223002201F076F8B4F90C10EAE700BFA0
:1039280010B50C46B1F90E1001F06CF8B4F90C3072
:10393800421C0EBF23F4805343F480532065A381B7
:1039480010BD00BFB1F90E1000F0B6B870B5154D36
:103958002C68DCB165681F2D21DC80B14FF0010CAB
:1039680004EB850ECEF88820D4F888610CFA05F2AD
:1039780016430228C4F88861CEF8083109D06B1CB8
:1039880002356360002044F8251070BD064C2C6099
:10399800E0E7D4F88C311343C4F88C31EFE74FF0EB
:1039A800FF3070BD4C0800205008002038B50C4688
:1039B800114600228446074D20462A601A4664466E
:1039C80003F018F9431C00D038BD2B68002BFBD03E
:1039D800236038BDE0090020704700BF704700BF72
:1039E8002DE9F041154692682C68FAB107468846D9
:1039F800083402E013460834C3B16B685E1E002B1E
:103A08006E6013DD54F8046C002EF3D03346414643
:103A1800384654F8082C00F045FF431C07D0AA6824
:103A28000834921B1346AA60002BE6D1002000231D
:103A3800C5E90133BDE8F08120F0030110F003006F
:103A4800C0F1000051F8043B00F1040C4FEACC0C23
:103A58006FF000021CBF22FA0CF213434FF0010C66
:103A68004CEA0C2C4CEA0C4CA3EB0C0222EA0302A5
:103A780012EACC1204BF51F8043B0430F4D0C2F16E
:103A8800000102EA0102B2FA82F2C2F11F0200EB5F
:103A9800D2007047002238B5064D044608462A6011
:103AA80003F06AF8431C00D038BD2B68002BFBD00C
:103AB800236038BDE0090020002238B5064D0446D1
:103AC80008462A6003F0A4F8431C00D038BD2B68D0
:103AD800002BFBD0236038BDE0090020144600B558
:103AE8001A460A4B0D461B6885B0DE6803464CB182
:103AF80007490191304607490294009500F056FFA6
:103B080000F092FE04490C46F3E700BF00000020D5
:103B1800348A0008448A0008408A000808B5134619
:103B28000022FFF7DBFF00BF38B5436C05460C46A3
:103B38004BB153F8240080B1026843F824200023D5
:103B4800C0E9033338BD2122042100F075FE034685
:103B580068640028EDD1002038BD0121284601FA0B
:103B680004F56A1D920000F067FE0028F3D0C0E952
:103B78000145E4E731B1436C4A6853F82200086014
:103B880043F82210704700BF2DE9F0414FF0000EB6
:103B98000E461C460D69074601F1140001680EF136
:103BA800010E8BB202FB0343090C4FEA134C02FBD4
:103BB80001CC9BB203EB0C43754540F8043B4FEA3C
:103BC8001C44EBDC3CB1B368AB4207DD06EB850374
:103BD80001355C6135613046BDE8F0817168384671
:103BE8000131FFF7A1FF8046A8B1326906F10C0147
:103BF800023292000C30FCF725FE7B6C726853F899
:103C08002210316043F82260464606EB85030135F1
:103C18005C613561DFE70246BA21024B0248FFF7D3
:103C28005DFF00BFF4890008748A00082DE9F84395
:103C38001E460C4626490833174681FB032C092EDD
:103C48004FEAE3730546C3EB6C0339DD4FF0010C13
:103C580000214FEA4C0C634501F10101F9DC2846CB
:103C6800FFF762FF014668B3089B092F43614FF0D5
:103C78000103036112DC09270A34BE420BDDF61B7F
:103C8800264414F8013B0A222846303BFFF77CFF04
:103C9800B4420146F5D10846BDE8F88304F10909A4
:103CA800C8463C4418F8013B0A222846303BFFF737
:103CB8006BFFA0450146F5D1A7F108044C44DCE7A9
:103CC8000021CCE70246D321024B0348FFF706FF49
:103CD800398EE338F4890008748A0008B0F5803F0B
:103CE80003463ABF102083400020B3F1807F3CBFD9
:103CF8001B020830B3F1805F3CBF1B010430B3F1F5
:103D0800804F03D3002B06DB013070479B0003D4A0
:103D18005B0003D42020704702307047033070479F
:103D28000368014613F0070209D0DA0721D498077F
:103D38004BBF5B089B08012002200B60704798B2BC
:103D4800A0B11046DAB20AB908301B0A1A0704BF34
:103D58001B0904309A0704BF9B080230DA0703D412
:103D68005B0800F1010006D00B6070471020C340CB
:103D7800E8E7002070472020704700BF38B5436C43
:103D880004460D464BB15868B0B102685A6000222B
:103D980001234561C0E9032338BD2122042100F035
:103DA8004BFD034660640028EDD1002240F2451126
:103DB800074B0848FFF792FE1C220121204600F01D
:103DC8003BFD0028F1D001220223C0E90123DEE7F0
:103DD800F4890008748A00082DE9F04FD1F81080A2
:103DE80015690E46A845924685B005DB2A46534616
:103DF80045468A4690461E46DAF80830DAF8041036
:103E080005EB0804A342B8BF0131FFF78DFE002877
:103E180000F0898000F1140707EB840E774505D27E
:103E28003B46002243F8042B9E45FBD8143606EB8C
:103E380088080AF11409464509EB850566D2A5EB01
:103E48000A03153B23F003030AF1150A0433554509
:103E58002CBF9B464FF0040BCDF808E08246AE46D7
:103E6800039405E0090C2AD1B04507F104074AD9A3
:103E780056F8041B8DB2002DF4D0CC463C460023E6
:103E880001965CF8040B216886B28AB205FB06220B
:103E9800000C090C05FB00111A4401EB124192B207
:103EA80042EA0142E64544F8042B4FEA1143E8D8B8
:103EB800019E47F80B3056F8041C090CD4D0002298
:103EC8003B6848461D463C46944602889BB201FB27
:103ED80002C202EB154243EA024344F8043B50F89D
:103EE800043B25684FEA134CABB201FB0C33704519
:103EF80003EB12434FEA134CE7D3B04547F80B30B6
:103F080007F10407B4D8DDE902E45046002C02DCCE
:103F180005E0013C03D05EF8043D002BF9D00461B4
:103F280005B0BDE8F08F02464FF4B171014B02486D
:103F3800FFF7D4FDF4890008748A000812F003031F
:103F48002DE9F041144607462CD10E46A4101CD08A
:103F58003D6C85B3E3074FF0000806D4641014D015
:103F68002868A8B10546E307F8D52A4631463846F9
:103F7800FFF732FF36B17B6C716853F8212032604D
:103F880043F8216064100646EAD13046BDE8F08166
:103F98002A4629463846FFF71FFF28600546C0F81D
:103FA8000080E0E70F4A013B52F823200023FFF787
:103FB800EBFD0646CAE701213846FFF7B5FD054681
:103FC80040B140F271230122C0E904230023386480
:103FD8000360BFE7024640F24511034B0348FFF771
:103FE8007DFD00BF60800008F4890008748A00081D
:103FF8002DE9F0470C462769A36807EB62177D1C7B
:104008009D429046064649684FEA621904DD5B0006
:104018009D4201F10101FADC3046FFF785FD0028D9
:1040280051D0B9F1000F00F114010FDD0B464FF02C
:10403800000C09F105024FEA820E00EB820243F8F8
:1040480004CB9342FBD1AEF114031944226904F165
:10405800140318F01F0803EB820C2CD08E464FF087
:10406800000AC8F120091A6802FA08F242EA0A02AC
:104078004EF8042B53F8042B9C4522FA09FAF2D87F
:10408800ACEB0403153B23F00303043304F11502DE
:10409800944538BF042341F803A0BAF1000F00D1BA
:1040A8003D46736C6268056153F82210216043F83D
:1040B8002240BDE8F087043953F8042B9C4541F8A9
:1040C800042FF9D8ECE702464FF4EF71014B024890
:1040D800FFF704FDF4890008748A000884460B6918
:1040E8000069C01A15D10CF1140C14310CEB8302C1
:1040F80010B401EB830301E0944508D252F8044D53
:1041080053F8041D8C42F7D004D24FF0FF3010BC96
:1041180070477047012010BC704700BF2DE9F04F71
:1041280014460A6923698846D21A002A83B040F0E7
:10413800888001F1140604F1140202EB830206EBF5
:10414800830301E09E427FD253F8045D52F8041DB8
:104158008D42F7D076D323460025444698466168B9
:10416800FFF7E2FC002800F0898000F114094946B5
:104178004FF0000C2769D8F8106004F1140B08F10F
:10418800140EC56004F110020EEB86060BEB870ACD
:10419800CDF804B05EF8044B52F8045F1FFA84FBB4
:1041A800ABB2A3EB0B03240C6344C4EB154404EB40
:1041B80023449BB243EA0443764541F8043B4FEA63
:1041C800244CE7D808F115018E4234BF00210121A3
:1041D800A6EB0806153EB608002906F101024FEACB
:1041E800820208BF0422DDF804B00BEB0204A245EA
:1041F8004A4434D915462146E04651F8046BB3B217
:1042080063444FEA164E0EEB234E06EB08039BB2AF
:1042180043EA0E438A454FEA2E4C45F8043BEBD857
:104228000AF1FF3AAAEB040A2AF0030A524423B916
:1042380052F8043D013F002BFAD0076103B0BDE8F6
:10424800F08F88DA01258AE70021FFF76DFC70B14D
:1042580001220023C0E9042303B0BDE8F08F002940
:104268004FEA860608BF002609EB0602DFE702468A
:1042780040F23721054B0648FFF730FC024640F272
:104288004521024B0248FFF729FC00BFF4890008CA
:10429800748A0008124B0A460B40A3F15073002B96
:1042A80003DD00221946104670475B42B3F1A07F38
:1042B8004FEA235106DA4FF4002300220B41194636
:1042C8001046704714391E29D4BF4FF0004201220E
:1042D8004FF00003D8BFCA4010461946704700BFC8
:1042E8000000F07FF8B5046900F1140202EB8404C1
:1042F80054F8045C261F2846FFF7F0FC0346C0F17B
:1043080020000A2B086030DDB242A3F10B071AD255
:1043180054F8083C1FB3C7F1200C23FA0CF1BD4038
:1043280045EA0106A4F1080546F07F51AA4203FABE
:1043380007F341F4401116D254F80C2C22FA0CF26F
:1043480013431846F8BD0B2B08D0002305FA07F7CE
:1043580047F07F51184641F44011F8BD002345F05D
:104368007F5141F440111846F8BDB2422CBF0022DB
:1043780054F8082CC3F10B0703F1150325FA07FCC1
:1043880038BFFA4005FA03F34CF07F51134318463F
:1043980041F44011F8BD00BFF0B5012183B01646C5
:1043A8001F46FFF7C1FB0546002847D0C7F30A544C
:1043B800C7F313030CB143F48013002E019314D1F7
:1043C80001A8FFF7ADFC0122019B20306B612A6137
:1043D80014B3089BA4F2334404441C60099BC0F145
:1043E80035001860284603B0F0BD68460096FFF710
:1043F80097FC019B00B30099C0F1200203FA02F276
:10440800C34001930A43002B6A610CBF01220222B8
:10441800AB612A61002CDCD105EB8201A0F23243AA
:10442800086908990B60FFF759FC099BC0EB42101B
:104438001860284603B0F0BD009AE4E7024640F24F
:104448000F31024B0248FFF749FB00BFF48900080F
:10445800748A00082DE9F04383B08846694681468E
:10446800FFF740FF04460D46404601A9FFF73AFF13
:10447800D9F81030D8F81020A3EB020CDDE900328F
:104488009B1A03EB4C13002B0BDD05EB03573D4642
:1044980002460B462046294601F0C4FF03B0BDE89A
:1044A800F083C3EB033301EB03594946F0E700BF40
:1044B800172870B506460ADD002000240749084D74
:1044C80022462B4601F084FE013EF9D170BD054B12
:1044D80003EBC003D3E9040170BD00BF0000F03F47
:1044E800000024406080000801F1FF3C116902F1DE
:1044F80014034FEA6C1C03EB81010CF1010C8B4295
:1045080000EB8C0C16D210B5A0F1040E53F8044B36
:1045180099424EF8044FF9D88B1A153B23F0030340
:1045280004331844844504D9002340F8043B8445E7
:10453800FBD810BD844505D9002340F8043B8445C9
:10454800FBD87047704700BF03694A11934200F1D6
:10455800140009DA00EB830302E053F8042DA2B932
:104568008342FAD80020704700EB8203F8DD11F08F
:104578001F01F5D010B450F8224024FA01F28A4005
:10458800944208D0012010BC70470120704753F8AE
:10459800042D002AF6D18342F9D8002010BC7047B8
:1045A8005FFA81FC810744D00346511E22B909E015
:1045B8009A0709D0013905D31846027801336245B4
:1045C800F6D1704700207047184603290CD80029F7
:1045D800F8D00346014401E08B42F3D0184613F8A3
:1045E800012B6245F8D1704710B50CEB0C2402463C
:1045F80004EB044402E00439032915D9104652F8A3
:10460800043B6340A3F1013E2EEA030313F0803F0D
:10461800F1D00346014401E08B4208D0184613F854
:10462800012B6245F8D110BD10460029F1D10020B8
:1046380010BD1146C9E700BFF03070470048704709
:1046480038060020004870473806002010B4034C94
:10465800D4F8E440A44610BC604700BF48050020D9
:1046680082B049B15AB16BB113780B601278101E41
:1046780018BF012002B0704701A9002AF3D11046E3
:1046880002B070476FF00100F4E700BFB1F90C20E9
:10469800F8B516070C46074648D4496842F4006343
:1046A8000029A3815FDDA56A002D3DD0002112F409
:1046B80080523E683960E16961D101233846A847D4
:1046C800451C02466AD0B4F90C30A56AE16958075E
:1046D80005D56368D21A236B0BB1E36BD21A00239A
:1046E8003846A847411C4CD13968B4F90C301D290B
:1046F8003FD82F4ACA40D2073BD5002262602269C0
:10470800DD04226023F40062A28101D5002943D090
:10471800216B3E6041B104F14003994202D0384612
:10472800FEF778FF002323630020F8BD0E69002EF2
:10473800FAD0920718BF00230D6808BF4B690E60B6
:10474800AD1B8B600CE02B463246D4F824C03846AB
:10475800E169E047B0F1000CA5EB0C05664406DD05
:10476800002DF0DCE0E7E16B00299CDCDCE7B4F924
:104778000C3043F040034FF0FF30A381F8BD226DA9
:10478800A5E70022B4F90C3062602269226023F4A4
:104798000062DB04A281BBD52065B9E73B68002B2A
:1047A80091D01D2B01D0162BE1D13E60BCE700BF94
:1047B8000100402010B5044682B008B1436B53B1E4
:1047C800B1F90C0008B902B010BD204602B0BDE82E
:1047D8001040FFF75BBF0191FCF7BCF90199EFE7C7
:1047E800A0B138B50C4B04461D680DB16B6B4BB1CD
:1047F800B4F90C0000B938BD21462846BDE8384058
:10480800FFF744BF2846FCF7A5F9F1E7034A044936
:104818000448FCF7E1B900BF00000020280100208F
:10482800BD47000808000020062008B500F044FB3A
:10483800012002F0CBF900BF38B5A1FB021454BB2C
:10484800FDF7F4FB054650B350F8042C22F00302A0
:10485800043A242A10D8132A13D91B2AC0E9004481
:1048680016D9242AC0E902440ABFC0E9044400F169
:10487800100200F1180205E02146FBF7D9FE284690
:1048880038BD024600232846C2E90033936038BD8C
:1048980000F10802F6E7FBF71BFF0C230360002575
:1048A800284638BD2DE9F0471D468F680C46AF42B3
:1048B80016460B6836D8B1F90CC01CF4906F0ED1AF
:1048C8003D46184631462A4600F0B0FB0020A36852
:1048D800DF1B2368A7602B442360BDE8F0874A6983
:1048E800096902EB42025F1A02EBD2726B1C52108A
:1048F8003B44934292BF914699461A461CF4806FF6
:10490800804611D01146FDF791FB824600B33A4626
:104918002169FBF797FFA38923F4906343F0800391
:10492800A38105E02F46CCE700F082F8824658B113
:104938000AEB0703A9EB0707A760C4F810A02F46E6
:10494800C4F814902360BCE740462169FEF762FE74
:104958000C22A3894FF0FF3043F04003C8F8002031
:10496800A381BAE738B50C46114600228446074DA4
:1049780020462A601A46644602F02EF9431C00D0ED
:1049880038BD2B68002BFBD0236038BDE009002020
:104998000CB400B583B004AB53F8042B019300F0BA
:1049A800C3FB03B05DF804EB02B070470EB400B56A
:1049B800074A82B003AB0146106853F8042B0193F1
:1049C80000F0B2FB02B05DF804EB03B0704700BF23
:1049D8000000002010B4034CD4F8E040A44610BCFA
:1049E800604700BF48050020034649B1FF2A02D8A6
:1049F80001200A7070478A224FF0FF301A60704712
:104A08000846704738B50C46114600228446074DC3
:104A180020462A601A46644602F004F9431C00D076
:104A280038BD2B68002BFBD0236038BDE00900207F
:104A38002DE9F84F1646002900F096800C4680466E
:104A480006F10B05FEF7C8FF54F8041C162DA4F157
:104A5800080921F0030758D81025AE4258D8AF42AC
:104A680060DABF4B09EB070C9A68DCF80400624572
:104A780000F0908020F0010363445B68DB0768D492
:104A880020F003003B189D4247DDCB0712D454F8B1
:104A9800083CA9EB030BDBF8043023F003021044B5
:104AA80000EB070A554540F3F68007EB020A554527
:104AB80040F3CC8031464046FDF7B8FA0646002858
:104AC80000F0218154F8043CA0F1080223F001030E
:104AD8004B44934200F0B4803A1F242A00F2D78056
:104AE800132A00F2A2800346224611681960516811
:104AF800596092689A6021464046FEF78BFD404611
:104B0800FEF76CFF3046BDE8F88F35F00705A4D5F1
:104B18000C23C8F80030002618E01F46DCE9022301
:104B2800D3609A60D9F804307A1B0F2A03F0010386
:104B380009EB07001DD83B43C9F80430436843F02C
:104B4800010343604046FEF749FF26463046BDE86C
:104B5800F88FC907AED454F8083CA9EB030BDBF86F
:104B6800043023F00302A0E71146BDE8F84FFDF733
:104B78005DBA2B4309EB050142F00102C9F8043084
:104B88004A604368083143F0010343604046FEF73A
:104B980041FDD7E720F00300C21905F1100C62456A
:104BA80080F29280CA0785D454F8082CA9EB020B2E
:104BB800DBF8042022F00302104400EB070AD44576
:104BC8003FF773AF5E46DBF80C1056F8080F3A1F34
:104BD800242AC160886000F2B080132A40F2AB80BA
:104BE80021681B2ACBF808106168CBF80C1000F27A
:104BF800AA8008340BF110022168116061685160C5
:104C0800A1689160AAEB05020BEB050142F00102D5
:104C180099604A60DBF80430404603F001032B43F7
:104C2800CBF80430FEF7DAFE90E723681B2A03600E
:104C3800636843603DD804F1080200F1080354E7B3
:104C480050F8043C23F003031F446BE75E463A1F09
:104C5800DBF80C3056F8081F242ACB60996023D85B
:104C6800132A1FD923681B2ACBF808306368CBF8AE
:104C78000C303CD808340BF1100322681A606268C3
:104C88005A60A2689A6034465746D9464AE7214690
:104C980000F0CCF92FE7DCE902135E46CB603A1F3F
:104CA8009960D5E73346E8E72146304600F0BEF97B
:104CB800E9E7A368242A8360E368C36027D004F186
:104CC800100200F1100310E7521B09EB050142F036
:104CD800010299604A6054F8043C404603F001031D
:104CE8002B4344F8043CFEF779FE26462EE7A368DA
:104CF800242ACBF81030E368CBF8143010D01034E5
:104D08000BF11803B9E74046FEF768FE03E723698D
:104D180004F1180203616369436100F11803E4E6D2
:104D280023691834CBF8183054F8043CCBF81C30FD
:104D38000BF12003A1E732465EE72146304600F03A
:104D480075F9074B5EE7A168242ACBF81010E168D3
:104D5800CBF8141006D010340BF118024CE700BF42
:104D68003801002022691834CBF8182054F8042C94
:104D7800CBF81C200BF120023EE700BF38B5D0F875
:104D880018410CB1002038BD80210546FDF74EF9C9
:104D98000246C5F8180130B1031F7C3243F8044FAE
:104DA8009342FBD1EEE74FF0FF3038BD30B51F29F5
:104DB800054683B009D8D0F818310C4653B153F8DA
:104DC800240043F8242003B030BD162303604FF0BD
:104DD800FF30F8E780210192FDF728F9019A034690
:104DE800C5F818010028F2D0011F00F17C05002049
:104DF80041F8040FA942FBD1E1E700BF1F2938B5EC
:104E080005461FD8D0F818210C466AB152F821304F
:104E180053B1012B06D0591C10D00021204642F86E
:104E280024109847002038BD284600F0FDF8224697
:104E380001462846BDE8384000F0E2B816230120B4
:104E48002B6038BD16234FF0FF302B6038BD00BFF4
:104E58001F292DD838B5D0F818310C460546A3B10E
:104E680053F8242003EB84034AB1511C0BD0012AC8
:104E780007D0002520461D609047284638BD0120F0
:104E880038BD032038BD022038BD8021FDF7CEF89B
:104E98000346C5F8180140B100201A1F03F17C0130
:104EA80042F8040F8A42FBD1DAE74FF0FF3038BDF1
:104EB8004FF0FF30704700BF38B5144B1F281D68EE
:104EC8001ED8D5F81821044662B152F820304BB1EB
:104ED800012B05D0591C0FD0002142F8201098470B
:104EE800002038BD284600F09FF822460146284693
:104EF800BDE8384000F084B8162301202B6038BD87
:104F080016234FF0FF302B6038BD00BF0000002093
:104F1800124B1F2870B51E6809D8D6F818310446F8
:104F28000D464BB153F8240043F8245070BD1623A6
:104F380033604FF0FF3070BD80213046FDF776F8C2
:104F48000346C6F818010028F3D00021021F7C3060
:104F580042F8041F8242FBD1E4E700BF00000020B2
:104F680038B50C4B1D68D5F818410CB1002038BD78
:104F780080212846FDF75AF8C5F8180138B1031FF3
:104F880000F17C0243F8044F9342FBD1EEE74FF067
:104F9800FF3038BD0000002038B5184B1F281D68A9
:104FA80028D80446D5F81801A0B150F8242000EB01
:104FB80084034AB1511C0BD0012A07D00025204692
:104FC8001D609047284638BD012038BD032038BDF4
:104FD800022038BD80212846FDF728F8C5F81801B9
:104FE80040B10021031F00F17C0243F8041F9342E3
:104FF800FBD1DAE74FF0FF3038BD00BF00000020DA
:1050080070B50026074D0446084611462E6001F08B
:10501800D5FD431C00D070BD2B68002BFBD023604E
:1050280070BD00BFE009002001F0C6BD88420ED95E
:105038008B1883420BD900EB020C002A6DD0624614
:1050480013F801CD994202F801CDF9D170470F2A22
:105058000FD8034602F1FF3C002A5ED00CF1010C88
:10506800013B8C4411F8012B614503F8012FF9D15C
:10507800704740EA01039B0750D1A2F1100370B5B5
:1050880001F1200C23F00F0501F1100E00F11004BE
:10509800AC441B095EF8105C0EF1100E44F8105C6D
:1050A8005EF81C5C103444F81C5C5EF8185C44F82C
:1050B800185C5EF8145CE64544F8145CEAD10133E8
:1050C80012F00C0F01EB031102F00F0400EB0313B5
:1050D80028D08E46043C24F003064FEA940C1E4464
:1050E8001C1F5EF8045B44F8045FB442F9D10CF16C
:1050F800010402F0030203EB840301EB840102F1D3
:10510800FF3C4AB10CF1010C013B8C4411F8012B16
:10511800614503F8012FF9D170BD7047034602F1CC
:10512800FF3C9BE72246EAE72DE9F04FADB01C466D
:105138009146CDE90730029118B1436B002B00F07E
:1051480001850299B1F90C204B6E950405D442F4FF
:10515800005223F400538A814B66980400F122859B
:10516800029BB3F90C20110740F1D3801B69002B77
:1051780000F0CF8002F01A020A2A00F0D98000233A
:105188000DF1700AD346CDE91033CDF83CA0099350
:10519800059399F80030002B00F0F4804C4604E0A9
:1051A80014F8013F002B00F0D280252BF8D1B4EB86
:1051B800090540F0CF802378002B00F0E3804FF002
:1051C800FF3303934FF000038DF8373000239846E0
:1051D800617804F10109049309F10109A1F120039F
:1051E800582B00F2DC80DFE813F0AF01DA00DA00B8
:1051F800AA01DA00DA00DA00DA00DA00DA0074016B
:10520800A401DA007E018301DA009F0159005900E8
:105218005900590059005900590059005900DA003D
:10522800DA00DA00DA00DA00DA00DA00DA00DA00A6
:10523800DA006800DA00DA00DA00DA00DA00DA0008
:10524800DA00DA00DA00DA001702DA00DA00DA0047
:10525800DA00DA00E801DA00DA001C04DA00DA0021
:10526800DA00DA00DA00DA00DA00DA00DA00DA0066
:10527800DA016A00DA00DA00DA00D5016A00DA0039
:10528800DA00C801DA00BA011A047D027802DA00ED
:105298005702DA001804DA00DA0041040022A1F10A
:1052A800300319F8011B02EB820203EB4202A1F161
:1052B8003003092BF5D9049290E748F0100818F04C
:1052C800200F00F0D580079B073323F0070318460B
:1052D800596850F8083B0A4607900029C0F2DC805C
:1052E80003999DF837000029C0F2E18053EA0201D2
:1052F80028F0800840F0DB80039B002B40F05984A5
:1053080054460193002800F0BC81019A01320192B1
:10531800B7E1029D0898294600F0AEFC002840F04D
:105328004184B5F90C2002F01A020A2A7FF427AF4B
:10533800029BB3F90E30002BFFF621AF23464A46F5
:10534800029908982DB0BDE8F04F00F05FBCB4EBAF
:10535800090517D0119BCBE900952B441193109B9D
:105368000133072B109305DC0BF1080B059B2B442D
:10537800059320E7029908980FAA00F0DFFC28B9E6
:10538800D346F3E7119B002B40F0FE83029B9B89D9
:105398005B0600F1078405982DB0BDE8F08F002961
:1053A800F0D000238DF8373001238DF84810019391
:1053B80012AC00220392069218F08407DDE910214E
:1053C80005D10498019D451B002D00F350829DF8DE
:1053D800370078B1012001320131CBF80400072AE7
:1053E8000DF13700CDE91021CBF8000000F37B82E6
:1053F8000BF1080B069870B1022001320231CBF88C
:105408000400072A0EA8CDE91021CBF8000000F30C
:1054180078820BF1080B802F00F09B810398C51A46
:10542800002D00F3D88101321944072ACDE9102153
:10543800CBF80040CBF8043000F305820BF1080BE1
:1054480018F0040F05D0049B019A9C1A002C00F355
:105458006682DDE9042301988242ACBF9B181B18C1
:105468000593002940F0FA810023D346109390E673
:10547800079A18F0100F52F8043B079207D118F05A
:10548800400F04D043F3C03211461BB225E7DA17A8
:1054980011460029BFF624AF2D2003995B4262EB29
:1054A800420200298DF8370001DB28F080080A2B1A
:1054B80072F1000180F0F4823033DBB28DF86F3086
:1054C800039B0DF16F04012BB8BF01230193012346
:1054D80018E7079B53F8042B002A0492079304DA71
:1054E800049B5B42049348F0040899F8001073E6A3
:1054F800484610F8011B2A2900F05F83A1F1300308
:10550800092B98BF002200F2488310F8011B02EB18
:10551800820203EB4202A1F13003092BF5D942EADA
:10552800E2738146039359E699F8001048F0800821
:1055380052E62B2399F800108DF837304CE699F88D
:10554800001048F0010847E69DF8373099F8001038
:10555800002B7FF441AE20238DF837303CE618F05D
:10556800200F00F04F82079B059A1B681A60D2171C
:105578005A60079B043307930BE699F800106C29CF
:1055880003BF99F8011048F0200809F1010948F013
:10559800100821E699F8001048F040081CE600229F
:1055A8000121079B8DF8372053F8042B01910793AD
:1055B8008DF848200B4612ACFBE648F0100111F0BC
:1055C800200200F0E481079B073323F00703184605
:1055D8005A6850F8083B07900020039C8DF8370064
:1055E8008442C0F2A782012053EA020421F0800815
:1055F80040F09480039C002C40F09E82002840F0EC
:10560800F98111F0010300F0F981302201938DF83E
:105618006F200DF16F0434E048F0100111F0200202
:1056280000F0C481079B073323F0070318465A6824
:1056380050F8083B07900020039C8DF837008442FF
:10564800D2DA8846544603F00701DB0843EA42737E
:10565800D208303153EA0205204604F8011DF2D180
:1056680018F0010F6DD030296BD03023039A02381F
:1056780004F8013CAAEB00039A42B8BF1A46044654
:10568800019218F0020206923FF496AE019A023295
:105698000192022206928FE60021079D039B55F88E
:1056A800044B8DF83710002C00F05E82002BC0F2FE
:1056B800E0811A462046FEF773FF002800F06B824F
:1056C800031B9DF8372023EAE3710191002A00F0BB
:1056D800528200220795039217E699F8001048F0C5
:1056E800200879E547F63003079AADF8383052F8C4
:1056F800043BB6490792002248F0020809910021AC
:105708008DF83710039900290DDB414653EA02044E
:105718004FF0020021F080083FF46CAF012800F040
:10572800588202288ED15446099803F00F01415C33
:105738001B0943EA0273120904F8011D53EA020126
:10574800F3D1039AAAEB04039A42B8BF1A4601920E
:1057580097E70498019D451B002D7FF75FAE102D3C
:1057680040F3298258460694CB4610279946984E0E
:10577800089C04E0103D102D00F1080015DD0132F1
:105788001031072AC0E90067CDE91021F2DD204673
:1057980002990FAA00F0D2FA00287FF4F7ADDDE9EC
:1057A8001021103D102D5046E9DC4B46D946834662
:1057B800069C01322944072ACDE91021CBF8006064
:1057C800CBF8045000F3C28103980BF1080BC51AFB
:1057D800002D7FF728AE102D7D4E26DD5846039408
:1057E800B34610271E46089C04E0103D102D00F11A
:1057F800080016DD0132764B1031072AC0E9003760
:10580800CDE91021F1DD204602990FAA00F096FAA1
:1058180000287FF4BBADDDE91021103D102D504666
:10582800E8DC33465E468346039C01322944072A56
:10583800CDE91021CBF80060CBF8045000F3CC8000
:105848000BF1080BEFE5029908980FAA00F076FA19
:1058580000287FF49BADD3461199F1E50299089889
:105868000FAA00F06BFA00283FF4FEAD8EE5102D6C
:10587800584E2ADDCDE90A7458463746CB46089C6F
:105888009946029E04E0103D102D00F1080016DD37
:10589800102301321031072ACDE910210760436037
:1058A800F1DD314620460FAA00F048FA00287FF4BF
:1058B8006DADDDE91021103D102D5046E8DC4B465A
:1058C800D94683463E460B9C0A9F01322944072A43
:1058D800CDE91021CBF80060CBF8045000F31C810F
:1058E8000BF1080B73E5029908980FAA0A9300F0C8
:1058F80025FA00287FF44AADDDE91021D3460A9B3A
:1059080078E5029908980FAA069300F017FA00287C
:105918007FF43CADDDE91021D346069B7BE5102CD6
:10592800109B40F3448110252A4E089FDDF808801B
:1059380004E0103C102C0BF1080B15DD013310317D
:10594800072BCBE90065CDE91031F2DD4146384639
:105958000FAA00F0F3F900287FF418ADDDE9103143
:10596800103C102CD346E9DC01332144072BCBE94A
:105978000064CDE910317FF76CAD029908980FAA41
:1059880000F0DCF900287FF401AD119961E5079872
:1059980050F8043B079011F010007FF41DAE11F091
:1059A80040023FF419AE02469BB215E6079850F83C
:1059B800043B079011F010007FF43DAE11F0400257
:1059C8003FF439AE02469BB235E600BFC4890008F1
:1059D8009C8200088C820008029908980FAA0393F9
:1059E80000F0ACF900287FF4D1ACDDE91021D346F2
:1059F800039B18E5039B5446019342E6039A5446D9
:105A080001923EE618F0100F38D118F0400F35D04B
:105A1800079B059A1B681A80ABE54146CFE54146CE
:105A2800FCE56D4B099318F020022CD0079B073337
:105A380023F0070318465A6850F8083B079018F0F7
:105A4800010F3FF45CAE53EA02003FF458AE8DF804
:105A5800391030218DF8381000218DF8371003994E
:105A6800002980F28C8048F002085CE65B4B0993C1
:105A7800D9E72046FDF7E0FF034622E6079B059A93
:105A88001B681A6075E5079850F8043B079018F0F2
:105A98001000D4D118F040021CBF02469BB2CEE7DA
:105AA80054464FF0CC3C4E4DCDF804B0991841F116
:105AB8000001A5FB01EB2BF0030E0EEB9B0EA1EBF7
:105AC8000E011F465B1A62F1000E16460CFB03F22C
